:020000040800F2
:10000000681C002045010008790E0008E50700087B
:10001000C9090008250300080B15000800000000AE
:100020000000000000000000000000007D1000083B
:10003000E903000800000000650F000885110008B2
:100040005F0100085F0100085F0100085F01000810
:100050005F0100085F010008EB0300085F01000872
:100060005F0100085F0100085F01000859030008F4
:100070005F0100085F0100085F0100085F010008E0
:100080005F0100085F0100085F0100085F010008D0
:100090005F0100085F0100085F0100085F010008C0
:1000A0005F0100085F0100085F0100085F010008B0
:1000B0005F0100085F0100085F0100085F010008A0
:1000C0005F0100085F0100085F0100085F01000890
:1000D0005F0100085F010008D51200085F010008F9
:1000E000FD0300085F0100085F0100085F010008D0
:1000F0005F0100085F0100085F0100085F01000860
:100100005F0100085F0100085F0100085F0100084F
:100110005F0100085F0100085F0100085F0100083F
:100120005F0100085F0100085F0100085F0100082F
:10013000DFF80CD000F040F8004800472117000815
:10014000681C00200648804706480047FEE7FEE797
:10015000FEE7FEE7FEE7FEE7FEE7FEE7FEE7FEE777
:10016000751200083101000840EA01039B0703D023
:1001700009E008C9121F08C0042AFAD203E011F8E6
:10018000013B00F8013B521EF9D2704730B50B46D7
:10019000014600202022012409E021FA02F59D42B7
:1001A00005D303FA02F5491B04FA02F52844151E8B
:1001B000A2F10102F1DC30BD064C074D06E0E0681B
:1001C00040F0010394E8070098471034AC42F6D39E
:1001D000FFF7B2FF581A0008781A000870B50546F4
:1001E0000C464FF480712F4800F0E1FA4FF4007193
:1001F0002C4800F0DEFA01F083FA00202A4908704A
:1002000044E015F8010B29490870002028490870BE
:1002100032E0002028B14FF48061224800F0C7FA94
:1002200004E04FF480611F4800F0C3FA01F068FA5F
:100230004FF400711B4800F0BAFA01F061FA4FF474
:1002400000411C4800F0AAFA20B9207800F0FE0016
:10025000207003E0207840F00100207020784006F4
:10026000000E20704FF400710E4800F0A2FA104802
:100270000078401C0E4908700D4800780828C8DB3B
:10028000641C09480078401C07490870064800783B
:100290000328B6DB01F034FA4FF48071014800F016
:1002A00088FA70BD000801404D0000204E0000207B
:1002B0004C000020000C014008B50121042000F092
:1002C00063FE4FF4F850ADF8000001208DF80200F5
:1002D00010208DF803006946104800F08CF90121C8
:1002E000082000F051FE4FF40040ADF8000001205E
:1002F0008DF8020004208DF803006946084800F0DC
:100300007AF901F0FDF94FF48051044800F051FAF8
:100310004FF40061014800F04AFA08BD00080140AE
:10032000000C014000BFFEE730B502460B464FF619
:10033000FF7008E012F8014B4440E1B20012054C96
:1003400034F8114060401C1EA3F10105EBB2F1D15D
:1003500030BD00005818000810B5022000F02EF83B
:10036000012814D1022000F01BF80948006870B978
:100370004FF4166207490848FFF7F6FE01200449CA
:1003800008600648008C401C00B20449088410BD77
:1003900044000020A2050020020F00205000002091
:1003A00000F0805111B10349086001E00249486042
:1003B0007047000004040240000002400146002093
:1003C000002201F0805313B1054B1A6801E0054B80
:1003D0001A6802EA01030BB1012000E00020704717
:1003E0000004024000000240704710B5012000F0F8
:1003F00017F810B1012000F00DF810BD10B54FF442
:10040000005000F00DF818B14FF4005000F002F861
:1004100010BD00000149086070470000140401404D
:10042000014600200022074B1B6803EA0102054B2E
:1004300014331B680B4013B10AB1012000E0002007
:10044000704700000004014070B50546154800687B
:10045000407840F0800013490968487011480068EE
:10046000857003210F480068FFF75EFF06460D49BF
:100470000968CE7030120B490968087100240DE03C
:1004800008480068015D084801F03BF800BF4021C2
:10049000054800F069FF0028F9D0641C052CEFDB4B
:1004A00070BD00002C000020004400400149C860DD
:1004B000704700000020024030B5044604254FF488
:1004C000302000F085F80546042D17D10C4800694E
:1004D00040F002000A49086108464461006940F0A2
:1004E000400008614FF4302000F072F805460448DF
:1004F000006941F6FD71084001490861284630BD98
:100500000020024004200B49C96801F0010109B133
:1005100001200EE00749C96801F0040109B1022079
:1005200007E00449C96801F0100109B1032000E0A7
:1005300004207047002002400348006940F080001A
:1005400001490861704700000020024078B5064666
:100550000C46042500200090E80200F039F805461A
:10056000042D24D11348006940F0010011490861AD
:100570003480E80200F02CF80546042D10D1B01CA0
:100580000090200C00990880E80200F021F8054650
:100590000848006941F6FE7108400649086106E016
:1005A0000448006941F6FE71084002490861284686
:1005B00078BD00000020024002480349486003481B
:1005C000486070472301674500200240AB89EFCDAA
:1005D00000B502460423FFF795FF034603E0FFF74B
:1005E00091FF0346521E012B01D1002AF7D102B917
:1005F0000523184600BD2DE9F041024600250026DE
:10060000002000230024002791F803C00CF00F0500
:1006100091F803C00CF0100CBCF1000F03D091F85E
:1006200002C04CEA050591F800C0BCF1000F31D0C2
:10063000146800202BE04FF0010C0CFA00F3B1F825
:1006400000C00CEA03069E4220D183004FF00F0C3D
:100650000CFA03F7BC4305FA03FC4CEA040491F8D6
:1006600003C0BCF1280F06D14FF0010C0CFA00FCBE
:10067000C2F814C00AE091F803C0BCF1480F05D1DC
:100680004FF0010C0CFA00FCC2F810C0401C082806
:10069000D1D31460B1F800C0BCF1FF0F34DD546851
:1006A00000202EE000F1080C4FF0010808FA0CF3CE
:1006B000B1F800C00CEA03069E4221D183004FF03E
:1006C0000F0C0CFA03F7BC4305FA03FC4CEA0404D4
:1006D00091F803C0BCF1280F05D100F1080C08FA0D
:1006E0000CF8C2F8148091F803C0BCF1480F07D190
:1006F00000F1080C4FF0010808FA0CF8C2F810805D
:10070000401C0828CED35460BDE8F081F0B50A46FD
:10071000002300240021002500F00046B6F1004F20
:1007200002D11D4EF16901E01B4E7168C0F3034513
:1007300083B200F44016B6F5401F08D121F0706175
:10074000154E766826F07066134F7E6012E000F456
:100750008016B6F5801F06D1032606FA05F4A143DC
:1007600041F0706106E0460D360103FA06F6B1432A
:1007700041F0706122B1460D360103FA06F63143AD
:1007800000F00046B6F1004F02D1034EF16101E0E6
:10079000014E7160F0BD00000000014002460020E3
:1007A00093680B400BB1012000E0002070474161CD
:1007B000704701617047000001460A290CDA0748BA
:1007C00030F81100012807D1054830F81100034A1C
:1007D00022F81100012070470020FCE7840500206A
:1007E0007005002000BFFEE710B545F2555000F03F
:1007F00031F8022000F022F840F6FF7000F024F8F3
:1008000000F014F800F002F810BD00004CF6CC40E7
:100810000149086070470000003000404AF6AA20F5
:100820000149086070470000003000404AF6AA20E5
:1008300001490860704700000030004001494860ED
:100840007047000000300040014988607047000098
:10085000003000400149086070470000003000404F
:1008600010B5024600200023054800EB810304E098
:10087000046824B21480921C001D9842F8D310BD65
:10088000008000082DE9F04105460E460024A046F0
:100890000427FFF791FE3420FFF708FE0C48FFF70E
:1008A0000BFE07460A4C04EB860807E0B5F900107A
:1008B0002046FFF74BFE0746AD1C241D444501D2E0
:1008C000042FF3D0FFF738FE3846BDE8F081000072
:1008D0000080000808B501210C2000F055FB012123
:1008E000084600F051FB01210848FFF70FFF1020D8
:1008F000ADF8000001208DF8020010208DF80300F3
:1009000069460348FFF777FE08BD0000000230008B
:100910000008014010B586B004460121042000F013
:1009200033FB0121480400F01FFB0420ADF8140044
:1009300018208DF8170003208DF8160005A9164819
:10094000FFF759FE0820ADF8140004208DF81700B9
:1009500005A91148FFF74FFE01940020ADF80800EB
:10096000ADF80A00ADF80C00ADF810000C20ADF8A1
:100970000E0001A9094800F053FD00F011F8012212
:1009800040F22551054800F026FD0121034800F002
:10099000DFFC06B010BD000000080140004400402C
:1009A00008B54FF4A06000F0A1FA26208DF80000F1
:1009B00000208DF8010001208DF802008DF8030061
:1009C000684600F05BFA08BD00BFFEE702480088F9
:1009D000401C0149088070473A0000202DE9F84F7B
:1009E000B3480068407870B1B14800684078062884
:1009F00004DDAF48006840780F2804DBAC4800688D
:100A00004078102802DD0120BDE8F88FA948007861
:100A1000FA2803DCA7480078082801DA0320F3E766
:100A2000A4480078801EC1B2A1480068FFF77CFC92
:100A30008246A0480078801E9D490968095C9D484F
:100A40000078401E9A4A1268105C41EA002000902B
:100A50000098824501D00320D6E795480068C07809
:100A600093490968897840EA0125914800684079EE
:100A70008F490968097940EA01268D480068407865
:100A8000012804D08A4800684078022844D1B6F58D
:100A9000707F01DD0320B7E7A819C82801DB022019
:100AA000B2E783480068841C06F0070008B9F0101C
:100AB00001E0F010401C04F8010BAB464FF00009B8
:100AC00000271FE07C4830F81B0030B1217801205E
:100AD00000FA09F00143217005E02078012101FAB4
:100AE00009F18843207009F10100C0B2814608284D
:100AF00002DB4FF00009641C0BF101001FFA80FBC0
:100B0000781C87B2B742DDDB694800688078401DF9
:100B10006A490870002077E7654800684078052832
:100B200018D1C82D01DB02206EE7B6F57F4F04D146
:100B30000120614921F8150007E026B900205E492F
:100B400021F8150001E003205EE708205B490870EA
:100B5000002059E75648006840780F282BD1A81983
:100B6000C82801DB02204FE74FF000095048006819
:100B7000C41D514800EB4508002715E020780121ED
:100B800001FA09F1084008B1012000E0002028F82E
:100B9000020B09F10100C0B28146082802DB4FF0C8
:100BA0000009641C781C87B2B742E7DB0820434980
:100BB0000870002028E73E4800684078032804D0E9
:100BC0003B480068407804282CD17D2E01DD0320AD
:100BD0001AE7A819C82801DB022015E73448006885
:100BE000841C374800EB45087006000E04F8010B22
:100BF0002F460CE0B8F80000000A04F8010B98F842
:100C0000000004F8010B08F10208781C87B2A8194B
:100C1000B842EFDC264800688078401D27490870FC
:100C20000020F1E622480068407806280FD1C82D40
:100C300001DB0220E8E630B2214921F8150001204D
:100C40002049087008201D4908700020DCE618487B
:100C500000684078102828D1A819C82801DB022094
:100C6000D2E613480068C41D154800EB45082F461E
:100C700010E014F8011B080200B2A8F8000014F8F4
:100C8000010BB8F900100843A8F8000008F10208A9
:100C9000781C87B2A819B842EBDC0120094908701A
:100CA0000820064908700020AEE60020ACE60000EF
:100CB0002C00002035000020E0010020360000203C
:100CC000500000202800002000B599B039483A496A
:100CD000086000F58070394908603948B0F8CA00EA
:100CE000602818D03648B0F9CA00C02813D034485C
:100CF000B0F9CA00B0F5C07F0DD03148B0F9CA00D4
:100D0000B0F5906F07D04FF490602D49A1F8CA005C
:100D100001202C4908702A48B0F9CA00602808D080
:100D2000C0280AD0B0F5C07F0BD0B0F5906F10D1BD
:100D30000BE00F20244908700FE00A2022490870B8
:100D40000BE005202049087007E005201E490870C7
:100D500003E00A201C49087000BF00BF1848B0F922
:100D6000C800401C18B11648B0F8C80028B90120C6
:100D70001349A1F8C80013490870FFF711FE104984
:100D8000B1F9CA10642201FB02F0FFF7C3FD0C4861
:100D9000B0F9CA00642100FB01F30948B0F9C8208A
:100DA0000AA1684600F0D8FB6946104800F0BEFB77
:100DB00019B000BD700300202C000020300000207E
:100DC0005000002028000020380000200D0A537435
:100DD0006174696F6E204E6F3A2025642C20426149
:100DE0007564726174653A20256400000044004017
:100DF00070B5194800881949097888422ADD1848D1
:100E000005681848006816490860164805601648C5
:100E10000078164908700020134908700120144911
:100E2000087012480078082811DB0D480068007827
:100E30001049B1F9C810884209D1FFF7CFFD044627
:100E40001CB12046FFF700FB01E000F059F800203C
:100E50000149088070BD00003A00002038000020E1
:100E60002C0000203000002034000020350000203D
:100E700037000020500000207047000070B50021AE
:100E800000230F22C47804B3154C246804F4E064F2
:100E9000C4F5E064210AC1F10403CA40447804FAAD
:100EA00003F184781440214309010E4C0678A155C2
:100EB000047804F01F050124AC4005786D11AD00E5
:100EC00005F1E025C5F8004109E0047804F01F05AC
:100ED0000124AC40044D0678761145F8264070BDDB
:100EE0000CED00E000E400E080E100E00249014395
:100EF000024A1160704700000000FA050CED00E0A6
:100F000070B515480078801EC1B214480068FFF71C
:100F10000BFA054610480078801E104A12681554D6
:100F200029120D480078401E0C4A12681154002402
:100F30000DE00A480068015D094800F0E2FA00BFD0
:100F40004021074800F010FA0028F9D0641C02483C
:100F500000788442EDDB70BD360000202C000020BC
:100F6000004400407047000029B1064AD26902439C
:100F7000044BDA6104E0034AD2698243014BDA612F
:100F8000704700000010024029B1064A92690243EE
:100F9000044B9A6104E0034A92698243014B9A61CF
:100FA000704700000010024030B5002100220024EC
:100FB00000232D4D6D6805F00C0121B1042905D0E9
:100FC000082923D105E0294D056022E0274D056061
:100FD0001FE0254D6D6805F47012234D6D6805F412
:100FE0008034022505EB92421CB9214D5543056022
:100FF0000BE01D4D6D6805F400351DB11C4D5543CA
:10100000056002E0194D5543056002E0174D05608B
:1010100000BF00BF144D6D6805F0F0010909154DC2
:101020006B5C0568DD4045600F4D6D6805F4E0615F
:10103000090A104D6B5C4568DD4085600A4D6D689E
:1010400005F46051C90A0B4D6B5C4568DD40C56015
:10105000054D6D6805F44041890B074D6B5CC56813
:10106000B5FBF3F5056130BD0010024000127A00B7
:1010700000093D001400002024000020704710B536
:1010800000F002F810BD00000CB5002001900090A7
:101090003348006840F480303149086000BF304870
:1010A000006800F4003000900198401C0190009806
:1010B00018B90198B0F5A06FF1D12948006800F483
:1010C000003010B10120009001E000200090009855
:1010D000012843D12348006840F0100021490860EE
:1010E0000846006820F0030008600846006840F0E9
:1010F000020008601A48406819494860084640687C
:1011000048600846406840F480604860084640688F
:1011100020F47C1048600846406840F4E8104860BD
:101120000846006840F08070086000BF0C48006806
:1011300000F000700028F9D00948406820F0030052
:10114000074948600846406840F00200486000BF18
:101150000348406800F00C000828F9D10CBD0000DD
:1011600000100240002002400A2806DA4A1C034B05
:1011700023F81020024B23F8102070477005002040
:101180008405002010B5FFF721FC0F480068401CC3
:101190000D4908600D48006820B90C480068401EE1
:1011A0000A49086000240CE0094830F814000128BE
:1011B00006DD074830F81400401E054921F81400E8
:1011C000641C0A2CF0DB10BD400000203C00002015
:1011D0008405002070B52149096842F21073B1FB03
:1011E000F3F2B2F1807F01D301211DE022F07F41B3
:1011F000491E4FF0E023596159170F23002907DAE0
:101200001C07260E164C01F00F052D1F665503E036
:101210001C07250E134C655400BF00214FF0E0233E
:10122000996107211961002109B100BFFEE74FF064
:10123000E021096961F001014FF0E0221161002015
:1012400009E00021084A22F81010084A22F810107C
:10125000074A1154401C0A28F3DB70BD000000202F
:1012600018ED00E000E400E0700500208405002097
:101270009805002010B51348006840F0010011499E
:10128000086008464068104908400E494860084612
:1012900000680E4908400B4908600846006820F4C1
:1012A000802008600846406820F4FE0048604FF443
:1012B0001F008860FFF7E3FE4FF0006004490860FC
:1012C00010BD0000001002400000FFF8FFFFF6FE16
:1012D00008ED00E010B540F22551174800F051F834
:1012E000E8B1154800F008F9C4B21448007898B184
:1012F0001348B0F9C800A04205D01248007810B9D0
:1013000000200E4908700F4801780078401C0D4AF3
:1013100010700D480068445400200C49088040F2C9
:101320002771054800F02DF828B1002240F22771FE
:10133000014800F050F810BD004400403700002084
:101340005000002034000020300000203A0000202F
:1013500021B1828942F40052828104E082894DF6F3
:10136000FF731A408281704702460020B1F5007F6A
:1013700000D100BF13880B400BB1012000E000201A
:10138000704770B50246002400230025002040F677
:101390006A16B14200D100BFC1F3421501F01F032C
:1013A000012606FA03F3012D02D19689334006E0A7
:1013B000022D02D1168A334001E0968A33400C1286
:1013C000012606FA04F41688344013B10CB101204A
:1013D00000E0002070BDF0B5034600240026002583
:1013E000002040F66A17B94200D100BF1846C1F389
:1013F000421401F01F06012707FA06F5012C01D15E
:101400000C3004E0022C01D1103000E014301AB18D
:1014100007682F43076002E00768AF430760F0BD2D
:101420002DE9F04786B005460E460024A24600BFCF
:10143000A1460027B08900B100BF2F462C8A4CF688
:10144000FF700440F08804432C82AC894EF6F31000
:101450000440B08831890843718908430443AC8152
:10146000AC8A4FF6FF400440B0890443AC8201A827
:10147000FFF79AFD1F48874202D1DDF810A001E076
:10148000DDF80CA0A88900F4004040B10AEBCA00C6
:1014900000EB0A1031684900B0FBF1F807E00AEBF5
:1014A000CA0000EB0A1031688900B0FBF1F8642033
:1014B000B8FBF0F004012009642101FB1089A88920
:1014C00000F4004040B1322000EBC900B0FBF1F065
:1014D00000F00700044308E0322000EB091064210B
:1014E000B0FBF1F000F00F0004432C8106B0BDE822
:1014F000F08700000038014001468888C0F30800EA
:101500007047C1F308028280704700BFFEE770B5E4
:1015100004460D4629462046FFF7F3FF00BF802111
:101520002046FFF721FF0028F9D070BD70B50646B0
:101530000C46002500BF615D3046FFF7E8FF6D1CDB
:10154000605D0028F7D100BF40213046FFF70CFF57
:101550000028F9D070BD00000FB4084B10B504A9E5
:1015600002AA039800F01CF8044602A9002000F02B
:10157000C1F8204610BC5DF814FB0000F516000809
:1015800002E008C8121F08C1002AFAD1704770474C
:10159000002001E001C1121F002AFBD170470000AA
:1015A0002DE9FF4F89B09B460446002506E025281B
:1015B0000BD05A460B999047641C6D1C207800286C
:1015C000F5D10DB02846BDE8F08F0027B8460122BE
:1015D000474900E0074314F8013F203B02FA03F0BB
:1015E0000842F7D120782E2819D114F8010F47F0BE
:1015F00004072A280ED06FF02F022078A0F13001C6
:1016000009290CD808EB880102EB410100EB010825
:10161000641CF2E70A98641C50F8048B0A90207846
:101620000028CED0642808D0692806D075281ED09E
:101630005A460B9990476D1C58E00A994FF00A09D9
:1016400001C90A91002802DA40422D2102E0390541
:1016500004D52B218DF82010012103E0F90704D0D7
:101660002021F7E78A4608AE0DE00021FAE70A9943
:101670004FF00A0901C90A91F7E74946FEF786FDCE
:10168000303106F8011D0028F7D1ADEB060000F15E
:101690002009780701D44FF00108C84502DDA8EB06
:1016A000090000E000208046002706E008A85A460E
:1016B000C05D0B9990476D1C7F1C5745F6DB04E01D
:1016C00030205A460B9990476D1CB8F10001A8F1E3
:1016D0000108F5DC05E016F8010B5A460B99904716
:1016E0006D1CB9F10001A9F10109F4DC641C65E786
:1016F000092801000A68531C0B6010707047000035
:1017000000200649086004E004480068401C0349C2
:101710000860024800683228F6DB70474800002065
:101720001CB50024FFF756FDC8214848FFF798F87C
:101730004648B0F8CC00401C00B24449A1F8CC00A7
:10174000012043490870FFF7C5F8FFF7BDFA4FF4D1
:10175000FA710120FFF708FD4FF47A710220FFF7BC
:1017600003FD64210320FFF7FFFC64210420FFF741
:10177000FBFCFEF7A1FDFFF737F8102035490860A4
:101780000C208DF8040000208DF805008DF806006F
:10179000694601A8FEF722FD10208DF80400002004
:1017A0008DF805000F208DF80600694601A8FEF7A8
:1017B00015FD04208DF8040000208DF805008DF83B
:1017C0000600694601A8FEF709FD3DE0FFF710FBA2
:1017D0000120FEF7F1FF48B11E480838006880F08C
:1017E00010001C4908390860FFF718F80220FEF7BE
:1017F000E3FF48B11648007830B1C8211348FFF71D
:1018000041F80020124908700320FEF7D5FFD8B137
:101810008DF8044004F16E000C4931F81000000A04
:101820008DF8050004F16E0011F810008DF8060027
:10183000694601A8FEF7D2FC601CC11700EB91714C
:101840008910A0EB8101CCB2C0E70000500000205D
:1018500028000020140801400000C1C081C14001DF
:1018600001C3C003800241C201C6C006800741C750
:101870000005C1C581C4400401CCC00C800D41CD20
:10188000000FC1CF81CE400E000AC1CA81CB400BF0
:1018900001C9C009800841C801D8C018801941D9C0
:1018A000001BC1DB81DA401A001EC1DE81DF401F50
:1018B00001DDC01D801C41DC0014C1D481D5401560
:1018C00001D7C017801641D601D2C012801341D370
:1018D0000011C1D181D0401001F0C030803141F100
:1018E0000033C1F381F240320036C1F681F7403750
:1018F00001F5C035803441F4003CC1FC81FD403D20
:1019000001FFC03F803E41FE01FAC03A803B41FBEF
:101910000039C1F981F840380028C1E881E940293F
:1019200001EBC02B802A41EA01EEC02E802F41EF4F
:10193000002DC1ED81EC402C01E4C024802541E55F
:101940000027C1E781E640260022C1E281E340236F
:1019500001E1C021802041E001A0C060806141A17F
:101960000063C1A381A240620066C1A681A740674F
:1019700001A5C065806441A4006CC1AC81AD406D1F
:1019800001AFC06F806E41AE01AAC06A806B41ABEF
:101990000069C1A981A840680078C1B881B94079BF
:1019A00001BBC07B807A41BA01BEC07E807F41BF4F
:1019B000007DC1BD81BC407C01B4C074807541B55F
:1019C0000077C1B781B640760072C1B281B340736F
:1019D00001B1C071807041B00050C19081914051FF
:1019E0000193C053805241920196C056805741974F
:1019F0000055C19581944054019CC05C805D419D1F
:101A0000005FC19F819E405E005AC19A819B405BEE
:101A10000199C059805841980188C048804941893E
:101A2000004BC18B818A404A004EC18E818F404F4E
:101A3000018DC04D804C418C0044C184818540455E
:101A40000187C047804641860182C042804341836E
:101A50000041C18181804040781A000800000020C8
:101A60005000000080150008C81A0008500000202F
:101A7000181C00009015000800A24A040000000095
:101A8000000000000102030406070809000000002E
:101A90000102030401020304060708090204060800
:101AA0000000000000000000000000000000000036
:101AB0000500000000000000000000000000000021
:081AC00000000000000000001E
:0400000508000131BD
:00000001FF
